:020000040800F2
:100000009006002049010008011300086F0A00084B
:10001000890E00081D0700082F26000800000000B8
:1000200000000000000000000000000005170008AC
:10003000B507000800000000AD15000819180008F9
:100040006301000863010008630100086301000800
:1000500063010008630100086301000863010008F0
:1000600063010008630100086301000863010008E0
:1000700063010008630100086301000863010008D0
:1000800063010008630100086301000863010008C0
:1000900063010008630100086301000863010008B0
:1000A00063010008630100086301000863010008A0
:1000B0006301000863010008630100086301000890
:1000C0006301000863010008630100086301000880
:1000D0006301000869220008752300086301000815
:1000E0006301000863010008630100086301000860
:1000F0006301000863010008630100086301000850
:10010000630100086301000863010008630100083F
:100110006301000863010008BD1A0008591B0008AC
:10012000630100086301000863010008630100081F
:10013000DFF810D000F070FA004800476D2B00087F
:10014000AFF300809006002006488047064800472D
:10015000FEE7FEE7FEE7FEE7FEE7FEE7FEE7FEE777
:10016000FEE7FEE71D1800083101000840EA010320
:100170009B0703D009E008C9121F08C0042AFAD25D
:1001800003E011F8013B00F8013B521EF9D2704721
:10019000D2B201E000F8012B491EFBD270470022C9
:1001A000F6E710B513460A4604461946FFF7F0FF76
:1001B000204610BDF0B480EA0102D40F4200B2EB39
:1001C000410F02D20246084611464A0042D0C30DF2
:1001D000DDB2C1F3C752AD1A202D35DAC1F31601D5
:1001E00041F4000204B15242C5F1200602FA06F1C0
:1001F0002A411044B3EBD05F23D0C4B1012DA0EB52
:10020000C35009DCF0BC4FF0004202EAC352DBB23B
:1002100000F5000000F075B9400000F1807000EBBF
:10022000C350A0F1807040EAD170490009E049084C
:1002300041EAC071A0EBC35000F50000400800EB9C
:10024000C350F0BC00F054B96142012202EB4101FD
:10025000001BF6E7F0BC704781F00041AAE780F090
:100260000040A7E780EA010210B502F00043400019
:1002700022D04A001FD0010E01EB1261C0F35600DC
:10028000C2F3560240F4000042F40002A0FB022038
:1002900000047F39140400D0401C50EA124001D4FD
:1002A0004000491EC2B20C0604EBD010401C4008AE
:1002B000802A02D003E0002010BD20F001000029B8
:1002C00000DA0020184310BD30B480EA010202F0C9
:1002D000004530F0004221F0004013D090B1C30D32
:1002E000D40DC2F31601C0F31600E41A41F4000164
:1002F00040F400027D34914201D3641C00E04900C7
:10030000002C02DA30BC002070474FF400000023BC
:10031000914201D3891A034340084FEA4101F7D1C2
:1003200051B1914202D14FF0004105E002D24FF0AD
:10033000010101E06FF0010103EBC450284430BC1F
:1003400000F0D6B82DE9FE4F81EA030404F0004422
:1003500021F0004100944FF0000B23F0004350EADD
:1003600001045ED052EA03045BD0C3F30A54C1F324
:100370000A552C44A4F2F3340194A0FB0254C1F3B7
:10038000130141F48011C3F3130343F4801301FB01
:10039000024400FB034E840A970A44EA815447EA68
:1003A0008357A4FB076802958D0A05FB07854FEA72
:1003B000932C04FB0C542705029D4FEA065847EA8C
:1003C0001637B5EB08056EEB070C870E920E47EA61
:1003D000811742EA8312A7FB0201B6EB0B0164EB23
:1003E00000042B0D43EA0C335E1844EB1C50DA4634
:1003F0005146E7FB0201C5F313044FEA0B3343EA0E
:1004000014534FEA0432019C43EA0603A4F10C049E
:100410000294009CCDE900B400F0B0F803B0BDE850
:10042000F08F00200146F9E7C10F80EAE070084430
:10043000CA079623002100F064B80EB5C10F80EA08
:10044000E0700844CA07002140F233438DE80E00F3
:100450000A460B4600F092F803B000BD00F00042DF
:1004600020F00040C10DC0F3160040F400007F29C9
:1004700001DA00207047962903DCC1F19601C840DB
:1004800001E096398840002AF4D04042704701F0DC
:10049000004330B421F0004150EA010206D00A0DB9
:1004A000A2F56072C1F31301002A02DC30BC002007
:1004B0007047440F44EAC104C100E01830BC00EBAF
:1004C000C25000F015B80000002801DBC0F1004068
:1004D000002901DBC1F1004181427047002801DBA6
:1004E000C0F10040002901DBC1F1004188427047A2
:1004F0000029A8BF7047401C490008BF20F0010038
:10050000704710B4B0FA80FC00FA0CF050EA010415
:1005100004BF10BC704749B1CCF1200421FA04F4A7
:1005200011FA0CF118BF012121430843A3EB0C0180
:10053000CB1D4FEA00614FEA102042BF002010BCE3
:10054000704700EBC35010440029A4BF10BC704793
:10055000401C490008BF20F0010010BC704710B5D6
:10056000141E73F1000408DA401C41F100019218D6
:100570005B411A4301D120F0010010BD2DE9F04D7F
:1005800092469B4611B1B1FA81F202E0B0FA80F2D4
:100590002032904600F052F804460F4640EA0A0026
:1005A00041EA0B0153465A46084313D0114653EA19
:1005B000010019D0C8F14002504600F04EF805463F
:1005C0000E4650465946424600F038F8084305D0DA
:1005D000012004E020463946BDE8F08D00200543A7
:1005E00046EAE0762C4337430A986305E40AA0EB19
:1005F00008000022FD0A44EA47540A3002D50020D0
:100600000146E9E7010510196941DDE908450019CE
:100610006941BDE8F04DA2E7064C074D06E0E068F1
:1006200040F0010394E8070098471034AC42F6D339
:10063000FFF782FDDC2F0008FC2F0008202A04DBD6
:10064000203A00FA02F1002070479140C2F12003E5
:1006500020FA03F3194390407047202A04DB203A24
:1006600021FA02F00021704721FA02F3D040C2F1D2
:100670002002914008431946704700002DE9F047D9
:10068000054600BF284644B22046FFF7CDFE074688
:10069000144801683846FFF78DFD12490860124979
:1006A00091F90010611AC1EB01114800FFF7BCFE7F
:1006B00080460C4801680020FFF7D4FD81464FF4C6
:1006C000E17104FB01F0FFF7AFFE82464946FFF7F8
:1006D00071FD07464146FFF76DFD06463046BDE811
:1006E000F0870000840000208000002001464906B9
:1006F000084A926942F00102064B9A61064A526822
:1007000022F0E062044B5A601A4652680A435A606B
:1007100070470000001002400000014000BFFEE7EB
:1007200010B50446242C0CD101201D4908701D4829
:100730001D49097844541C480078401C1A49087027
:100740002CE01748007800B910BD16481649097802
:10075000445415480078401C13490870232C10D1CC
:1007600000200F4908701049087064220D490F4895
:10077000FFF7FCFC01200E49087064210948FFF7CF
:100780000EFD09480078642808DB00200449087041
:100790000549087064210348FFF701FD00BFD3E756
:1007A0009C000020140100209D0000207801002002
:1007B0009100002070470000064909680160064961
:1007C0000968416005490968816005490968C16097
:1007D000704700002C000020300000203400002072
:1007E000380000200146002031B101290ED0022935
:1007F00018D003292AD11FE0164A128847F6FF7342
:100800009A1A10B21A46134B1A8020E04FF0804219
:10081000928C47F6FF739A1A10B21A464FF0804333
:100820009A8414E00C4A128847F6FF739A1A10B2A1
:100830001A46094B1A800AE0084A128847F6FF73E5
:100840009A1A10B21A46054B1A8000E000BF00BF8A
:100850007047000024080040240C0040240400409D
:1008600010B50020FFF7BEFF0E490968081A0D49B0
:1008700008600120FFF7B6FF0B490968081A0A490A
:1008800008600220FFF7AEFF0849096808440749DD
:1008900008600320FFF7A6FF0549096808440449DA
:1008A000086010BD2C000020300000203400002023
:1008B000380000202DE9F0410246002500260020E6
:1008C00000230024002791F803C00CF00F0591F8D5
:1008D00003C00CF0100CBCF1000F03D091F802C063
:1008E0004CEA050591F800C0BCF1000F31D0146846
:1008F00000202BE04FF0010C0CFA00F3B1F800C01F
:100900000CEA03069E4220D183004FF00F0C0CFA34
:1009100003F7BC4305FA03FC4CEA040491F803C056
:10092000BCF1280F06D14FF0010C0CFA00FCC2F804
:1009300014C00AE091F803C0BCF1480F05D14FF094
:10094000010C0CFA00FCC2F810C0401C0828D1D3DE
:100950001460B1F800C0BCF1FF0F34DD5468002012
:100960002EE000F1080C4FF0010808FA0CF3B1F882
:1009700000C00CEA03069E4221D183004FF00F0C09
:100980000CFA03F7BC4305FA03FC4CEA040491F8A3
:1009900003C0BCF1280F05D100F1080C08FA0CF8CF
:1009A000C2F8148091F803C0BCF1480F07D100F1E0
:1009B000080C4FF0010808FA0CF8C2F81080401C2F
:1009C0000828CED35460BDE8F0810000F0B50A4697
:1009D000002300240021002500F00046B6F1004F5E
:1009E00002D11D4EF16901E01B4E7168C0F3034551
:1009F00083B200F44016B6F5401F08D121F07061B3
:100A0000154E766826F07066134F7E6012E000F493
:100A10008016B6F5801F06D1032606FA05F4A14319
:100A200041F0706106E0460D360103FA06F6B14367
:100A300041F0706122B1460D360103FA06F63143EA
:100A400000F00046B6F1004F02D1034EF16101E023
:100A5000014E7160F0BD0000000001400246002020
:100A600093680B400BB1012000E00020704700BFED
:100A7000FEE710B500F006F800F048F800F058F86E
:100A800010BD000008B50121080200F0B1FD0820EA
:100A9000ADF8000048208DF8030069460148FFF7D3
:100AA00009FF08BD0020014010B5044600F022F8FF
:100AB00001280BD1601C0D490988B1EB400F0ADAFF
:100AC0000A480088401C0949088004E000200749C2
:100AD00008800749088005480088022803D10120C2
:100AE0000349088010BD0020FCE700004A000020F8
:100AF0004400002010B508210348FFF7AFFF08B9F4
:100B0000012010BD0020FCE70020014008B50121B4
:100B1000080200F06DFD1020ADF8000048208DF8AF
:100B2000030069460148FFF7C5FE08BD00200140EB
:100B300008B50121080200F05BFD2020ADF800009F
:100B400048208DF8030069460148FFF7B3FE08BD51
:100B5000002001401FB5C248C249C34AC34BCDE97A
:100B60000032CDE90210C24BC24AC349C34802F069
:100B7000B3F8C248007878B9BE48007860B9BC487C
:100B8000007848B9B948007830B9B548007818B944
:100B90000020BB4908704FE1B848007810B1B64852
:100BA000007838B9AE480078012803D1F120B44963
:100BB000087041E1AB48007810B1A948007838B915
:100BC000AE480078012803D10F20AD49087033E109
:100BD000AA48007801281ED1A748007801281AD118
:100BE000A4480078012816D1A148007898B99F48F8
:100BF000007801280FD19C48007801280BD1994832
:100C00000078012807D196480078012803D1FF20F9
:100C10009B49087010E19948007801281DD1964839
:100C20000078012819D193480078B0B9904800782D
:100C300098B98E48007801280FD18B480078012898
:100C40000BD188480078012807D185480078012811
:100C500003D1FE208A490870EEE088480078012818
:100C60001ED18548007801281AD182480078B8B989
:100C70007F480078012813D17C48007801280FD1E3
:100C80007948007801280BD176480078012807D1EF
:100C900073480078012803D1FE2079490870CBE021
:100CA0007648007801281DD173480078D0B9714882
:100CB0000078B8B96E480078012813D16B480078E5
:100CC00001280FD16848007801280BD165480078C9
:100CD000012807D162480078012803D1FD20684926
:100CE0000870A9E06548007801281DD162480078A5
:100CF000012819D15F480078012815D15C48007897
:100D0000012811D15948007870B957480078012856
:100D10000AD154480078012806D1514800780128AA
:100D200002D15749087087E05448007801281DD146
:100D300051480078012819D14E480078012815D172
:100D40004B480078012811D14848007870B94648CE
:100D5000007858B943480078012807D14048007806
:100D6000012803D102204649087065E04348007815
:100D700001281ED14048007801281AD13D4800784A
:100D8000012816D13A480078012812D13748007856
:100D900001280ED13448007858B93248007801282B
:100DA00007D12F480078012803D102203449087068
:100DB00042E03248007801281DD12F4800780128F0
:100DC00019D12C480078012815D12948007801282C
:100DD00011D12648007801280DD12348007850B958
:100DE0002048007838B91E480078012803D1032034
:100DF0002349087020E02148007801281CD11E48B2
:100E00000078012818D11B480078012814D118480F
:100E1000007888B91548007870B91348007801281F
:100E20000AD110480078012806D10D480078012821
:100E300002D1002012490870114890F90000FFF714
:100E40001DFC0446FFF70AFB0E4908600023084614
:100E5000008802B219464FF4FA7000F017F81FBD6F
:100E6000900000208F0000208E0000208D000020C8
:100E70008C0000208B0000208A00002089000020C8
:100E8000880000207C00002000BFFEE72DE9F04133
:100E900004460D4616461F463B4632462946204626
:100EA00001F09CFFBDE8F08100487047CDCC0443C1
:100EB00000487047F8334C430048704700008244B4
:100EC00010B50D48FFF778FC002011E00A4951F8F1
:100ED00020100A4A52F82020891A094A42F82010A4
:100EE000054951F82010054A42F82010411CC8B2AB
:100EF0000428EBDB10BD0000BC000020CC0000206B
:100F0000DC0000202DE9F04F87B0054600240020CA
:100F10000390049005900690FFF7CAFF0290FFF738
:100F2000CBFF0190FFF7C0FF0090FFF7C9FF00BFA4
:100F300013E0314951F82410642201FB02F0FFF75D
:100F400073FA07460299FFF78DF906460199FFF7F4
:100F5000BBF903A941F82400641C042CE9DBDDE99A
:100F60000301FFF727F981460599FFF723F980462A
:100F70000699FFF71FF907464FF08141FFF7A4F9E3
:100F80000646FFF76BFA00B2288000206880DDE992
:100F90000301FFF70FF983460599FFF75DF98246D4
:100FA0000699FFF759F980F000494FF08141484612
:100FB000FFF78AF980460099FFF786F907460F493F
:100FC000FFF750F90646FFF749FA00B2A8800C482F
:100FD000007868B1002406E003A850F8240009490D
:100FE00041F82400641C042CF6DB064800F0CCF920
:100FF00007B0BDE8F08F0000DC00002000007A445C
:1010000072000020EC0000202DE9F0411048FFF7AD
:1010100079FF10480078C8B10F49C869FFF71EFA78
:1010200004B20D498869FFF719FA05B20A494869FF
:10103000FFF714FA06B208490869FFF70FFA07B27A
:1010400023462A463146384600F008F8BDE8F081CC
:101050007400002072000020EC0000202DE9F04117
:1010600004460F4615461E4614F5616F06DBB4F5BF
:10107000616F03DC2146002000F07AF817F5616FFC
:1010800006DBB7F5616F03DC3946012000F070F82C
:1010900015F5616F06DBB5F5616F03DC29460220AB
:1010A00000F066F816F5616F06DBB6F5616F03DCDC
:1010B0003146032000F05CF8BDE8F0812DE9FC5FCB
:1010C00005460E4691469A4601201249087012487C
:1010D00005844684A0F82490A0F826A0002415E0FA
:1010E0000D49203131F91400FFF7A7F900220B4B0D
:1010F000CDE90001FFF726F90746FFF7C8F9834657
:101100005946204600F038FA601CC4B2042CE7DBD4
:10111000BDE8FC9F72000020EC0000200000F03FC2
:1011200010B5044600231A4619461846FFF7C6FFB5
:10113000042000F041F900200349087003490870B9
:10114000204600F07BF810BD720000207A000020DD
:101150000146002903DD01F5FA6000B2704700295D
:1011600003DAA1F5FA6000B2F8E70020F6E7000024
:1011700070B505460E463046FFF7EAFF0446B4F563
:10118000616F01DB4FF4616414F5616F00DC284C82
:1011900035B1012D15D0022D26D0032D44D132E0DA
:1011A000604204B2002C05DB22490C800020091D9E
:1011B000088005E000201F4908806042091D088062
:1011C00033E0604204B2002C06DB1A4908310C807F
:1011D0000020091D088006E000201649083108801B
:1011E0006042091D088020E0002C05DB12490C80BC
:1011F0000020091D088005E000200F49088060429A
:10120000091D088011E0002C06DB0B4908310C8019
:101210000020091D088006E00020074908310880E9
:101220006042091D088000E000BF00BF70BD0000E3
:10123000F0F1FFFF34340140342C014010B5044676
:1012400004B10124C4EB4410C0EB04204FF6FF723C
:1012500002EA0011284800F073FFC4EB4410C0EB11
:1012600004204FF6FF7202EA0011234800F06AFFE3
:10127000C4EB4410C0EB04204FF6FF7202EA0011E9
:101280001D4800F061FFC4EB4410C0EB04204FF692
:10129000FF7202EA0011184800F058FFC4EB441036
:1012A000C0EB04204FF6FF7202EA0011134800F071
:1012B00047FFC4EB4410C0EB04204FF6FF7202EA74
:1012C00000110E4800F03EFFC4EB4410C0EB0420B8
:1012D0004FF6FF7202EA0011084800F035FFC4EB38
:1012E0004410C0EB04204FF6FF7202EA00110348DD
:1012F00000F02CFF10BD000000340140002C014024
:101300007047000070B5002100230F22C47804B399
:10131000154C246804F4E064C4F5E064210AC1F1CA
:101320000403CA40447804FA03F18478144021434A
:1013300009010E4C0678A155047804F01F0501241C
:10134000AC4005786D11AD0005F1E025C5F8004110
:1013500009E0047804F01F050124AC40044D067830
:10136000761145F8264070BD0CED00E000E400E089
:1013700080E100E002490143024A11607047000029
:101380000000FA050CED00E070B5054600240DE004
:1013900055F8241004EB8402064B03EBC20000F066
:1013A00051F805F1100141F82400641C042CEFDB16
:1013B00070BD0000EC01002010B5042800DD10BD58
:1013C000042820D100211BE0002201EB81031C4CEA
:1013D00004EBC3039A6001EB810304EBC3039A613E
:1013E00001EB810304EBC303DA6101EB810304EB3E
:1013F000C3031A6201EB810304EBC3035A62491C65
:101400000429E1DB1AE0002100EB80020C4B03EB26
:10141000C202916000EB800203EBC202916100EB1B
:10142000800203EBC202D16100EB800203EBC20237
:10143000116200EB800203EBC202516200BFBEE703
:10144000EC0100202DE9F05F04460D462946206896
:10145000FEF702FFA0614FF08040216AFEF702FF15
:101460008346A169FEF7FBFE8246E169FEF7A2FE14
:1014700081466169FEF7F6FE0746A1692069FEF71D
:10148000F1FE8246216AA069FEF7E6FE8346E16826
:10149000FEF7E8FE81465146FEF78CFE804639464F
:1014A000FEF788FE0646A168FEF784FEA060206A6B
:1014B000E061A06920620849A068FFF70FF801D237
:1014C0000548A0600549A068FEF7FEFF01D2034869
:1014D000A060A068BDE8F09F0000C8440000C8C438
:1014E000002032E0002100EB80021D4B43F8321057
:1014F00000EB800203EBC202916000EB800203EB81
:10150000C202916100EB800203EBC202D16100EBE9
:10151000800203EBC202116200EB800203EBC20205
:101520005162104900EB800203EBC202D1600E4908
:1015300000EB800203EBC20211614FF07C5100EB23
:10154000800203EBC2025161401C0428CADB074839
:1015500007494860002088600648C860704700005E
:10156000EC0100206666A63F8FC2753DCDCCCC3E17
:10157000A0000020CDCCCC3D10B5042800DD10BD6E
:1015800004280AD1002205E002EB8203064C44F84D
:101590003310521C042AF7DB04E000EB8002024BFC
:1015A00043F8321000BFEAE7EC010020704700006A
:1015B00029B1064AD2690243044BDA6104E0034AC6
:1015C000D2698243014BDA6170470000001002408B
:1015D00029B1064A12690243044B1A6104E0034A26
:1015E00012698243014B1A617047000000100240EB
:1015F00029B1064A92690243044B9A6104E0034A06
:1016000092698243014B9A617047000000100240CA
:1016100029B1064AD2680243044BDA6004E0034A67
:10162000D2688243014BDA6070470000001002402C
:1016300030B500210022002400232D4D6D6805F0F7
:101640000C0121B1042905D0082923D105E0294D39
:10165000056022E0274D05601FE0254D6D6805F40B
:101660007012234D6D6805F48034022505EB92421B
:101670001CB9214D554305600BE01D4D6D6805F407
:1016800000351DB11C4D5543056002E0194D554311
:10169000056002E0174D056000BF00BF144D6D6886
:1016A00005F0F0010909154D6B5C0568DD404560EA
:1016B0000F4D6D6805F4E061090A104D6B5C4568DB
:1016C000DD4085600A4D6D6805F46051C90A0B4D17
:1016D0006B5C4568DD40C560054D6D6805F44041B3
:1016E000890B074D6B5CC568B5FBF3F5056130BD33
:1016F0000010024000127A0000093D001400002092
:1017000024000020704710B500F002F810BD000062
:101710000CB50020019000903348006840F4803000
:101720003149086000BF3048006800F40030009084
:101730000198401C0190009818B90198B0F5A06F6D
:10174000F1D12948006800F4003010B10120009068
:1017500001E0002000900098012843D12348006850
:1017600040F01000214908600846006820F003009E
:1017700008600846006840F0020008601A484068A7
:10178000194948600846406848600846406840F487
:10179000806048600846406820F47C104860084635
:1017A000406840F4E81048600846006840F08070E7
:1017B000086000BF0C48006800F000700028F9D0F5
:1017C0000948406820F0030007494860084640681F
:1017D00040F00200486000BF0348406800F00C0081
:1017E0000828F9D10CBD0000001002400020024082
:1017F000042808D14FF0E021096941F004014FF0BD
:10180000E022116107E04FF0E021096921F00401B5
:101810004FF0E022116170477047000010B5134887
:10182000006840F00100114908600846406810490E
:1018300008400E494860084600680E4908400B49B8
:1018400008600846006820F4802008600846406868
:1018500020F4FE0048604FF41F008860FFF753FF3C
:101860004FF000600449086010BD00000010024005
:101870000000FFF8FFFFF6FE08ED00E0F0B50C46B3
:10188000154600220021068C4FF6FE773E40068466
:10189000028B018C4FF60C7632407E1C06EA031652
:1018A0002E433243104EB0420ED0104EB0420BD0F9
:1018B000B0F1804F08D00E4EB04205D00D4EB04270
:1018C00002D00D4EB04206D14FF6FD76314044F0C5
:1018D0000106314305E04FF6F576314044F001064C
:1018E000314302830184F0BD002C014000340140EB
:1018F0000004004000080040000C0040F0B50C4619
:101900001546002200210026078C4FF6EF7C07EADF
:101910000C070784028B018C4FF6FF7707EA041649
:1019200040F6FF473A404FF6FF7707EA03373A435E
:101930004FF6FF7707EA05273A43114FB8420ED01A
:10194000104FB8420BD0B0F1804F08D00E4FB842C4
:1019500005D00E4FB84202D00D4FB84206D14FF617
:10196000DF77394046F01007394305E04FF65F77DF
:10197000394044F01007394302830184F0BD000070
:10198000002C0140003401400004004000080040E9
:10199000000C0040F0B50C46154600220021002640
:1019A000078C4FF6FF6C07EA0C070784828B018CCB
:1019B0004FF6FF7707EA04264FF60C773A404FF6CA
:1019C000FF7707EA03172F433A43114FB8420ED06F
:1019D000104FB8420BD0B0F1804F08D00E4FB84234
:1019E00005D00E4FB84202D00D4FB84206D14FF687
:1019F000FF57394046F48077394305E04FF2FF57EF
:101A0000394044F48077394382830184F0BD00007B
:101A1000002C014000340140000400400008004058
:101A2000000C0040F0B50C461546002200210026AF
:101A3000078C4EF6FF7C07EA0C070784828B018C2B
:101A40004FF6FF7707EA043640F6FF473A404FF675
:101A5000FF7707EA05273A434FF6FF7707EA033790
:101A60003A43114FB8420ED0104FB8420BD0B0F1EC
:101A7000804F08D00E4FB84205D00E4FB84202D06A
:101A80000D4FB84206D14DF6FF77394046F48057E6
:101A9000394305E047F6FF57394044F4805739434E
:101AA00082830184F0BD0000002C0140003401401D
:101AB0000004004000080040000C004010B5012167
:101AC0000B4800F08EF988B10121094800F055F863
:101AD0000848008820B107480088401E0549088052
:101AE000FEF7BEFEFFF790FAFFF734F810BD0000D6
:101AF000001000403E0000201FB501211020FFF71C
:101B000057FD41F61F40ADF804006320ADF8080012
:101B100001A9104800F04CFB01210E4800F02AF802
:101B2000012211460B4800F0CCF936208DF8000058
:101B300002208DF8010003208DF8020001208DF8AD
:101B400003006846FFF7DEFB0121024800F018F8A9
:101B50001FBD00000010004010B50121044800F036
:101B600040F918B10121024800F007F810BD00004B
:101B700000140040CA4302827047CA430282704781
:101B800021B1028842F00102028004E002884FF68F
:101B9000FE731A400280704731B1B0F8442042F41D
:101BA0000042A0F8442005E0B0F84420C2F30E0241
:101BB000A0F844207047000010B5044668488442ED
:101BC00008D10121C014FFF723FD0021E014FFF725
:101BD0001FFDC4E0B4F1804F08D101210846FFF792
:101BE000F7FC00210120FFF7F3FCB8E05D488442D8
:101BF00008D101210220FFF7EBFC00210220FFF7B2
:101C0000E7FCACE05848844208D101210420FFF7EA
:101C1000DFFC00210420FFF7DBFCA0E053488442F6
:101C200008D101210820FFF7D3FC00210820FFF78D
:101C3000CFFC94E04E48844208D101211020FFF7E8
:101C4000C7FC00211020FFF7C3FC88E0494884420C
:101C500008D101212020FFF7BBFC00212020FFF745
:101C6000B7FC7CE04448844208D101214014FFF7CE
:101C7000CFFC00216014FFF7CBFC70E03F488442AA
:101C800009D10121C804FFF7C3FC00214FF4002053
:101C9000FFF7BEFC63E03A48844209D10121080500
:101CA000FFF7B6FC00214FF48010FFF7B1FC56E0BF
:101CB0003448844209D101214805FFF7A9FC0021DD
:101CC0004FF40010FFF7A4FC49E02F48844208D1EC
:101CD00001214020FFF77CFC00214020FFF778FC29
:101CE0003DE02A48844208D101218020FFF770FCA2
:101CF00000218020FFF76CFC31E02548844208D1A8
:101D000001218015FFF764FC0021A015FFF760FC9E
:101D100025E02048844209D101210804FFF778FC1E
:101D200000214FF48030FFF773FC18E01A4884421A
:101D300009D101214804FFF76BFC00214FF400306A
:101D4000FFF766FC0BE01548844208D101218804A6
:101D5000FFF75EFC00214FF48020FFF759FC10BD17
:101D6000002C01400004004000080040000C00402E
:101D7000001000400014004000340140004C0140BD
:101D8000005001400054014000180040001C004079
:101D90000020004000400140004401400048014054
:101DA000F0B50C4615461E4600210022002301898D
:101DB000028B038C4FF6F877394021434FF6FC47EE
:101DC0003A4040F201173A434FF6DD773B404FF679
:101DD000FF7707EA06172F433B4301810283038401
:101DE000F0BD30B50246002000230024158A05EA24
:101DF0000103958905EA010413B10CB1012000E04B
:101E0000002030BD70B505460C46244885420ED0F2
:101E1000234885420BD0B5F1804F08D02148854238
:101E200005D02148854202D02048854200D100E0FB
:101E300000BF208850B92389A28861882846FFF70F
:101E40001DFDE188284600F086F925E02088042859
:101E50000AD12389A28861882846FFF74FFDE188CF
:101E6000284600F081F917E0208808280AD1238944
:101E7000A28861882846FFF78DFDE188284600F09A
:101E800080F909E02389A28861882846FFF7CAFD06
:101E9000E188284600F07EF970BD0000002C01406A
:101EA000003401400004004000080040000C0040E5
:101EB000002101804180012181800021C1800181B8
:101EC00070471AB183890B43838102E083898B4376
:101ED0008381704770B5002400220023058C4FF6E3
:101EE000FE7635400584028C8388048B4FF68F750F
:101EF0002C40B51E2C400D882C43751E2A400D89A0
:101F00002A434D882A43144DA8420BD0134DA842B2
:101F100008D0134DA84205D0124DA84202D0124D50
:101F2000A84213D14FF6F7752A404D892A434FF640
:101F3000FB752A408D882A434FF6FF652B404FF6EC
:101F4000FF552B408D892B43CD892B438380048300
:101F5000CD888586028470BD002C0140003401408C
:101F600000400140004401400048014070B5002499
:101F700000220023058C4FF6EF7635400584028C55
:101F80008388048B48F6FF752C404FF6FF452C40A4
:101F90000D884FF6FF7606EA05252C434FF6DF75D0
:101FA0002A400D8906EA05152A434D8806EA0515DB
:101FB0002A43154DA84202D0144DA8421DD14FF618
:101FC0007F752A404D894FF6FF7606EA05152A43AC
:101FD0004FF6BF752A408D8806EA05152A434FF64D
:101FE000FF352B404FF2FF752B408D8906EA8505A2
:101FF0002B43CD8906EA85052B4383800483CD8856
:102000000587028470BD0000002C014000340140AF
:1020100070B5002400220023058C4FF6FF66354082
:102020000584028C8388848B4FF68F752C404FF685
:10203000FC752C400D882C434FF6FF552A400D8926
:102040004FF6FF7606EA05252A434D8806EA052560
:102050002A43154DA84202D0144DA8421DD14FF27B
:10206000FF752A404D894FF6FF7606EA05252A437B
:102070004FF6FF352A408D8806EA05252A434EF69D
:10208000FF752B404DF6FF752B408D8906EA05152F
:102090002B43CD8906EA05152B4383808483CD88A5
:1020A0008587028470BD0000002C0140003401408F
:1020B00070B5002200230024058C4EF6FF763540D3
:1020C0000584038C8488828B48F6FF752A404FF67E
:1020D000FF452A400D884FF6FF7606EA05252A437C
:1020E0004DF6FF752B400D8906EA05352B434D88CB
:1020F00006EA05352B430B4DA84202D00A4DA842F3
:1021000008D14BF6FF752C408D894FF6FF7606EA15
:1021100085152C4384808283CD88A0F840500384A9
:1021200070BD0000002C01400034014000210180FE
:1021300041808180C180018141818181C18170475D
:10214000818670470187704781877047A0F84010EB
:10215000704781847047028B4FF6F3731A400283F5
:10216000028B0A4302837047028B4FF2FF331A40FF
:102170000283028B4FF6FF7303EA01231A430283A3
:102180007047828B4FF6F3731A408283828B0A4327
:1021900082837047828B4FF2FF331A408283828B97
:1021A0004FF6FF7303EA01231A438283704700004E
:1021B000002202881D4B98420ED01D4B98420BD036
:1021C000B0F1804F08D01B4B984205D01A4B984273
:1021D00002D01A4B984204D14FF68F731A404B88A5
:1021E0001A43174B984207D0164B984204D04FF62B
:1021F000FF431A40CB881A4302808B8883850B8863
:1022000003850A4B98420BD0094B984208D00E4BDD
:10221000984205D00D4B984202D00D4B984201D107
:102220000B7A03860123838270470000002C014053
:10223000003401400004004000080040000C004051
:1022400000100040001400400040014000440140E4
:10225000004801404FF6FF71818000210180C1805C
:10226000418001727047000010B5002440F22551F2
:10227000054800F017F930B1034800F0CFF9C4B2B7
:10228000204600F003F810BD0038014010B50446A8
:1022900000BF8021044800F0F8F80028F9D021465A
:1022A000014800F0C0F910BD0038014010B586B0FB
:1022B0000446012144F20400FFF79AF94FF400703C
:1022C000ADF8140018208DF8170003208DF81600C3
:1022D00005A92548FEF7EEFA4FF48060ADF814002A
:1022E00004208DF8170005A91F48FEF7E3FA0194B2
:1022F0000020ADF80800ADF80A00ADF80C00ADF80C
:1023000010000C20ADF80E0001A9184800F01AF9D1
:10231000002240F22771154800F0EEF8002240F24A
:102320002551124800F0E8F84021104800F098F8D4
:1023300001210E4800F09DF825208DF800000120B5
:102340008DF8010003208DF8020001208DF80300B4
:102350006846FEF7D7FF0648006840F001000449D0
:10236000086006B010BD00000008014000380140C0
:102370004000002010B540F22551064800F092F8C8
:1023800030B1044800F04AF9C4B22046FEF7C8F95B
:1023900010BD00000044004010B586B00446012185
:1023A0004804FFF705F901212120FFF721F9012158
:1023B0000820FEF70BFB2020ADF8140018208DF844
:1023C000170003208DF8160005A92248FEF772FABF
:1023D0004020ADF8140004208DF8170005A91D4811
:1023E000FEF768FA01940020ADF80800ADF80A0085
:1023F000ADF80C00ADF810000C20ADF80E0001A9EE
:10240000154800F09FF8002240F22771124800F0B2
:1024100073F8002240F225510F4800F06DF80121B9
:102420000D4800F026F826208DF8000001208DF8D8
:10243000010004208DF8020001208DF80300684699
:10244000FEF760FF0548006840F01000034908608F
:1024500006B010BD001401400044004040000020C0
:1024600001F40072B2F5007F00D100BFCA430280C0
:10247000704721B1828942F40052828104E082894E
:102480004DF6FF731A408281704702460020B1F575
:10249000007F00D100BF13880B400BB1012000E08A
:1024A0000020704770B5024600240023002500205C
:1024B00040F66A16B14200D100BFC1F3421501F0E7
:1024C0001F03012606FA03F3012D02D1968933403A
:1024D00006E0022D02D1168A334001E0968A33408D
:1024E0000C12012606FA04F41688344013B10CB11C
:1024F000012000E0002070BDF0B503460024002656
:102500000025002040F66A17B94200D100BF1846E6
:10251000C1F3421401F01F06012707FA06F5012C4A
:1025200001D10C3004E0022C01D1103000E0143055
:102530001AB107682F43076002E00768AF430760DE
:10254000F0BD00002DE9F04786B005460E46002498
:10255000A24600BFA1460027B08900B100BF2F46A8
:102560002C8A4CF6FF700440F08804432C82AC891E
:102570004EF6F3100440B08831890843718908434E
:102580000443AC81AC8A4FF6FF400440B089044359
:10259000AC8201A8FFF74CF81F48874202D1DDF852
:1025A00010A001E0DDF80CA0A88900F4004040B1C3
:1025B0000AEBCA0000EB0A1031684900B0FBF1F8E1
:1025C00007E00AEBCA0000EB0A1031688900B0FB93
:1025D000F1F86420B8FBF0F004012009642101FB4C
:1025E0001089A88900F4004040B1322000EBC900F6
:1025F000B0FBF1F000F00700044308E0322000EBEC
:1026000009106421B0FBF1F000F00F0004432C81AD
:1026100006B0BDE8F0870000003801400146888818
:10262000C0F308007047C1F308028280704700BF02
:10263000FEE702E008C8121F08C1002AFAD170475D
:102640007047002001E001C1121F002AFBD1704732
:1026500010B5FFF7E3F800F023F84FF4A060FEF7A1
:1026600089FE72B64FF4E130FFF720FE4FF4E130FF
:10267000FFF792FE00F0ECF9FEF7FBF900F08CFAA0
:1026800000214FF4616000F0B7FA00F07BFAFEF72A
:1026900027FF00F00FFA62B600F05AFB10BD0000F1
:1026A00010B50E4800680E49B0FBF1F0C4B26FF0EF
:1026B0000400FFF79DF8E11704EB5171C910094AB6
:1026C00011701046007800EB4001C1EBC0104FF6CE
:1026D000FF7101EAC0000449088010BD000000201D
:1026E00040420F00280000202A00002000B587B0DB
:1026F0000120FDF7FBFF01210846FEF779FF0121CC
:102700000803FEF763F901210420FEF751FF0121C0
:102710002020FEF76DFF4FF48050ADF8000004203C
:102720008DF8030069462648FEF7C4F801212020F1
:10273000FEF75EFF4FF40050ADF8000004208DF866
:10274000030069461E48FEF7B5F804A8FFF782FDAE
:102750000020ADF810004FF6FF70ADF81400002017
:10276000ADF81600ADF8120004A91648FFF720FDD9
:1027700000231A4603211348FFF712FB01A8FFF7B5
:1027800097FB0A20ADF80C0001A90E48FFF73AFBB1
:1027900001210C48FFF7EEF9012211460948FFF725
:1027A00090FB00210748FFF7D4FC47F6FF7005496E
:1027B0002431088001210348FFF7E2F907B000BD8A
:1027C000001401400008004000B587B00120FDF76B
:1027D0008DFF01210846FEF70BFF01213048FEF76F
:1027E000F5F801210846FEF7E3FE01210420FEF77B
:1027F000FFFE4FF40040ADF8000004208DF8030008
:1028000069462848FEF756F801210820FEF7F0FE39
:102810000820ADF8000004208DF803006946224826
:10282000FEF748F804A8FFF715FD0020ADF81000EA
:102830004FF6FF70ADF814000020ADF81600ADF8AB
:10284000120004A94FF08040FFF7B2FC00231A46A3
:1028500003214FF08040FFF7A3FA01A8FFF728FB00
:102860000A20ADF80C0001A94007FFF7CBFA0121BF
:102870008807FFF77FF9012211469007FFF721FB38
:1028800000214FF08040FFF764FC47F6FF704FF0E7
:102890008041888401218807FFF772F907B000BDE5
:1028A0000001180000080140000C014000B587B08D
:1028B0000120FDF71BFF01210820FEF779FE012111
:1028C0000420FEF795FE0120ADF8000004208DF8ED
:1028D000030069462548FDF7EDFF01210420FEF7BE
:1028E00087FE0220ADF8000004208DF80300694641
:1028F0001E48FDF7DFFF04A8FFF7ACFC0020ADF891
:1029000010004FF6FF70ADF814000020ADF816006F
:10291000ADF8120004A91648FFF74AFC00231A4636
:1029200003211348FFF73CFA01A8FFF7C1FA0A2078
:10293000ADF80C0001A90E48FFF764FA01210C481C
:10294000FFF718F9012211460948FFF7BAFA0021EA
:102950000748FFF7FEFB47F6FF7005492431088062
:1029600001210348FFF70CF907B000BD0008014042
:10297000000C004000B587B00120FDF7B7FE012133
:102980000846FEF735FE01212E48FEF71FF801210B
:102990000220FEF70DFE01210820FEF729FE10207F
:1029A000ADF8000004208DF8030069462648FDF7C5
:1029B00081FF01210420FEF71BFE2020ADF800005E
:1029C00004208DF8030069461F48FDF773FF04A833
:1029D000FFF740FC0020ADF810004FF6FF70ADF897
:1029E00014000020ADF81600ADF8120004A9174835
:1029F000FFF7DEFB00231A4603211448FFF7D0F946
:102A000001A8FFF755FA0A20ADF80C0001A90F48FC
:102A1000FFF7F8F901210D48FFF7ACF80122114644
:102A20000A48FFF74EFA00210848FFF792FB47F6E5
:102A3000FF7006492431088001210448FFF7A0F8FF
:102A400007B000BD00081A00000C0140000400405F
:102A500008B501210802FEF7CBFD4FF48040ADF828
:102A6000000010208DF8030002208DF80200694656
:102A70000D48FDF71FFF01210802FEF7B9FD4FF4D5
:102A80000040ADF8000010208DF8030002208DF802
:102A9000020069460448FDF70DFF00200349086065
:102AA0000349C1F8BC0108BD00200140B80124421F
:102AB0000000244208B501211020FEF799FD0121F4
:102AC0001420FEF795FD04208DF803000120ADF8D9
:102AD000000069462348FDF7EDFE04208DF8030051
:102AE0000220ADF8000069461E48FDF7E3FE042011
:102AF0008DF80300ADF8000069461A48FDF7DAFECC
:102B000004208DF803000820ADF800006946154840
:102B1000FDF7D0FE04208DF80300ADF800006946F3
:102B20001148FDF7C7FE04208DF803000820ADF81A
:102B3000000069460C48FDF7BDFE04208DF8030037
:102B40001020ADF8000069460648FDF7B3FE0420EA
:102B50008DF803002020ADF8000069460148FDF71C
:102B6000A9FE08BD0010014000080140FFF770FDFC
:102B700000BF0120FDF798FF0028FAD0FEF7BCFF48
:102B800000BFFEE710B5FFF7B1FDFFF71DFEFFF731
:102B90008DFEFFF7EFFE10BD10B59AB0602215490B
:102BA00001A8FDF7E3FA002420E004EB440101AAA8
:102BB00002EB810188680121FEF71AFD04EB440055
:102BC00001A901EB80008088ADF8640003208DF836
:102BD000660018208DF8670004EB440101AA52F842
:102BE000210019A9FDF766FE601CC4B2082CDCDBCD
:102BF0001AB010BD7C2F000830B587B005460C46D2
:102C000001214FF42050FEF7F3FC01210846FEF7A6
:102C1000EFFC01212D48FDF7D9FE2D48FEF7CCFF32
:102C20002C48FEF7C9FFADF80040681E80B2ADF831
:102C300004000020ADF80600ADF802006946244803
:102C4000FFF7B6FA69462348FFF7B2FA03A8FFF781
:102C50006DFA6020ADF80C000120ADF80E000020E8
:102C6000ADF81400ADF8120003A91948FFF732F9C6
:102C700003A91748FFF77AF903A91548FFF7C8F920
:102C800003A91348FFF714FA03A91248FFF722F922
:102C900003A91048FFF76AF903A90E48FFF7B8F92E
:102CA00003A90C48FFF704FA01210948FEF774FF55
:102CB00001210848FEF770FF01210548FEF760FF7B
:102CC00001210448FEF75CFF07B030BDC0001600CC
:102CD00000340140002C01402DE9F05F04460D4610
:102CE00016461F46DDE90CABDDE90A8901211648CD
:102CF000FDF7B4FE207002211348FDF7AFFE2870E7
:102D000004211148FDF7AAFE307008210E48FDF796
:102D1000A5FE387004210D48FDF7A0FE88F80000DC
:102D200008210A48FDF79AFE89F80000102106489C
:102D3000FDF794FE8AF8000020210348FDF78EFE7F
:102D40008BF80000BDE8F09F001001400008014032
:102D500010B51C48007800F0010028B1012240F2B3
:102D600025511948FFF7C8FB1648007800F01000FD
:102D700028B1012240F225511448FFF7BDFB11484C
:102D8000008800F4807028B1012240F225511048DB
:102D9000FFF7B2FB0B48008800F4805028B10122F5
:102DA00040F225510B48FFF7A7FB0648006800F4E6
:102DB000803028B1012240F225510748FFF79CFBE3
:102DC00010BD0000400000200038014000440040D9
:102DD00000480040004C0040005000402DE9F04702
:102DE00005460E4614469946FEF75EF880460020DA
:102DF000594908602846FDF717FB584908602046E6
:102E0000FDF712FB82465649FDF75EFA074641463A
:102E1000FDF728FA5349086035B92EB924B90120C5
:102E2000FEF77EF9BDE8F0874B4801684B48006823
:102E3000FDF7C0F982464B4801685046FDF7BAF9E4
:102E40000746FDF70BFB48490860434801684348C3
:102E50000068FDF701FA8246424801685046FDF7D6
:102E6000A9F90746FDF7FAFA404908603A480168AF
:102E70003A480068FDF7F0F982463A480168504642
:102E8000FDF7EAF90746FDF7E9FA394908603248E3
:102E9000016832480068FDF78DF9824631480168C3
:102EA0005046FDF7D9F90746FDF7D8FA31490860D1
:102EB0002D480068B0F57A7F03DD4FF47A702A4917
:102EC00008602948006810F57A7F02DA2A48264906
:102ED000086026480068B0F57A7F03DD4FF47A7009
:102EE000224908602148006810F57A7F02DA2248FA
:102EF0001E4908601E480068B0F57A7F03DD4FF474
:102F00007A701B4908601A48006810F57A7F02DA67
:102F100019481749086017480068B0F57A7F03DD43
:102F20004FF47A70134908601248006810F57A7FF0
:102F300002DA11480F4908600E48008803B20C48B5
:102F4000008802B20948008801B20748008800B230
:102F5000FEF7B4F800BF65E75000002054000020E1
:102F600000007A44580000205C000020600000202F
:102F7000640000206800002018FCFFFF00100140E2
:102F80004000000010000000001001408000000020
:102F900010000000001001400001000010000000BF
:102FA0000010014000020000100000000018014065
:102FB000000200004000000000180140000800006E
:102FC0004000000000180140002000004000000008
:102FD000001801400040000040000000FC2F0008E5
:102FE00000000020BC00000032260008B8300008B5
:102FF000BC000020D40500004226000800A24A04BC
:103000000000000000000000010203040607080998
:10301000000000000102030401020304060708097E
:10302000020406080000000000000000000000008C
:103030000000000000000000000000000000000090
:103040000000000000000000000000000000000080
:103050000000000000000000000000000000000070
:103060000000000000000000000000000000000060
:103070000000000000000000000000000000000050
:103080000000000000000000000000000000000040
:103090000000000000000000000000000000000030
:1030A000CDCCCC3E00000000CDCCCC3D00000000DB
:0830B000000000000000000018
:0400000508000149A5
:00000001FF
